S010000032303234303532342E7372656381
S113000045C000004BC0000049C0000047C00000CC
S113001045C0000043C0000041C000003FC00000D4
S11300203DC000003BC0000039C0000037C00000E4
S113003035C0000033C0000031C000002FC00000F4
S11300402DC000002BC0000029C0000027C0000004
S113005025C0000023C0000021C000001FC0000014
S11300601DC000001BC0000019C0000017C0000024
S113007015C0000013C0000011C000000FC0000034
S11300800DC000000BC0000009C0000011241FBEF9
S1130090CFEFD0E1DEBFCDBF27D06CC0B1CF90E0B1
S11300A007C00F920F900F920F900F920F909F5FC7
S11300B09817B8F308950F931F93CF93DF938C0190
S11300C0C0E0D0E009C08AEFEADF8AEFE8DF8AEF18
S11300D0E6DF8AEFE4DF2196C017D107A0F3DF91B2
S11300E0CF911F910F9108958FEF8ABB87BB84BB7B
S11300F081BBCFEFCBBB18BA15BA81E082BB84EFCA
S113010091E0D9DF1BBAC8BB15BA83E082BB84EF88
S113011091E0D1DF1BBA18BAC5BB87E082BB84EF7C
S113012091E0C9DFCBBB18BA15BA8FE082BB84EF6C
S113013091E0C1DF1BBAC8BB15BA8FE182BB84EF63
S113014091E0B9DF1BBA18BAC5BB8FE382BB84EF59
S113015091E0B1DFCBBBC8BBC5BB8FE782BB84EFEB
S113016091E0A9DF1BBA18BA15BAC2BB84EF91E0BB
S10B0170A2DFBFCFF894FFCF1A
S9030000FC
