S00D00006C65645F382E737265634B
S113000045C0000058C0000056C0000054C00000A5
S113001052C0000050C000004EC000004CC00000A0
S11300204AC0000048C0000046C0000044C00000B0
S113003042C0000040C000003EC000003CC00000C0
S11300403AC0000038C0000036C0000034C00000D0
S113005032C0000030C000002EC000002CC00000E0
S11300602AC0000028C0000026C0000024C00000F0
S113007022C0000020C000001EC000001CC0000000
S11300801AC0000018C0000016C0000011241FBED2
S1130090CFEFD0E1DEBFCDBF11E0A0E0B1E0E8E5F5
S11300A0F1E000E00BBF02C007900D92A830B10749
S11300B0D9F727D04FC0A4CF90E007C00F920F907C
S11300C00F920F900F920F909F5F9817B8F30895B7
S11300D00F931F93CF93DF938C01C0E0D0E009C04E
S11300E08AEFEADF8AEFE8DF8AEFE6DF8AEFE4DF10
S11300F02196C017D107A0F3DF91CF911F910F91E3
S11301000895CF93DF93CDB7DEB727970FB6F89452
S1130110DEBF0FBECDBF8FEF87BB87E0E0E0F1E02D
S1130120DE01119601900D928A95E1F700E010E04E
S11301300DC0E1E0F0E0EC0FFD1FE00FF11F808146
S113014088BB84E690E0C4DF0F5F1F4F07301105C2
S10B015080F3ECCFF894FFCF1B
S10B01580103070F1F3F7F00A4
S9030000FC
