:1000000045C000004BC0000049C0000047C00000D0
:1000100045C0000043C0000041C000003FC00000D8
:100020003DC000003BC0000039C0000037C00000E8
:1000300035C0000033C0000031C000002FC00000F8
:100040002DC000002BC0000029C0000027C0000008
:1000500025C0000023C0000021C000001FC0000018
:100060001DC000001BC0000019C0000017C0000028
:1000700015C0000013C0000011C000000FC0000038
:100080000DC000000BC0000009C0000011241FBEFD
:10009000CFEFD0E1DEBFCDBF22D03BC0B1CF8FEFDD
:1000A00081BB089582BB2FE38DE093E02150804017
:1000B0009040E1F700C000000895FC018081282FE6
:1000C00030E0220F331F822B8083ECCF0895FC0198
:1000D0009081892F869589238083E4CF0895CF93DB
:1000E000DF931F92CDB7DEB7DADF81E08983DADFF5
:1000F00010E004C0CE010196E0DF1F5F1730D0F39F
:1001000010E004C0CE010196E2DF1F5F1730D0F38C
:06011000EFCFF894FFCFD1
:00000001FF
