:1000000045C0000058C0000056C0000054C00000A9
:1000100052C0000050C000004EC000004CC00000A4
:100020004AC0000048C0000046C0000044C00000B4
:1000300042C0000040C000003EC000003CC00000C4
:100040003AC0000038C0000036C0000034C00000D4
:1000500032C0000030C000002EC000002CC00000E4
:100060002AC0000028C0000026C0000024C00000F4
:1000700022C0000020C000001EC000001CC0000004
:100080001AC0000018C0000016C0000011241FBED6
:10009000CFEFD0E1DEBFCDBF11E0A0E0B1E0EEECEC
:1000A000F1E000E00BBF02C007900D92AA31B1074A
:1000B000D9F77DD08AC0A4CF80936200089583B120
:1000C0008F7B83B9089583B18F7D83B983B18062BB
:1000D00083B983B18F7D83B98FEF98E10197F1F7F1
:1000E00000C000000895CF93C82F83B18F7783B9E4
:1000F000E6DF8C2FE1DFE7DFCF910895CF93C82FA4
:1001000083B1806883B9DBDF8C2FD6DFDCDFCF9152
:1001100008956F70817090E4899F600D1124862F7F
:100120008058E1CF08950F931F93CF938C01C0E0C7
:1001300002C0E4DFCF5FF801EC0FF11D8081811177
:10014000F8CFCF911F910F9108958FEF80936100A9
:1001500082B1806882B982B1806482B982B18062E2
:1001600082B92FEF89EF90E0215080409040E1F775
:1001700000C0000088E3B7DF8FE19EE40197F1F74C
:1001800000C0000088E3AFDF8FE19EE40197F1F744
:1001900000C0000088E3A7DF88E3A5DF88E0A3DFD5
:1001A00081E0A1DF8CE09FDF86E09DCF0895CDDF69
:1001B00060E080E0AEDF80E091E0B5DF60E081E00C
:0E01C000A8DF8AE091E0AFDFFFCFF894FFCF19
:1001CE0048656C6C6F2041565200476F6F6420413A
:0A01DE00546D65676131323841004D
:00000001FF
