:1000000045C0000058C0000056C0000054C00000A9
:1000100052C0000050C000004EC000004CC00000A4
:100020004AC0000048C0000046C0000044C00000B4
:1000300042C0000040C000003EC000003CC00000C4
:100040003AC0000038C0000036C0000034C00000D4
:1000500032C0000030C000002EC000002CC00000E4
:100060002AC0000028C0000026C0000024C00000F4
:1000700022C0000020C000001EC000001CC0000004
:100080001AC0000018C0000016C0000011241FBED6
:10009000CFEFD0E1DEBFCDBF11E0A0E0B1E0EEEFE9
:1000A000F1E000E00BBF02C007900D92A631B1074E
:1000B000D9F795D0A2C0A4CF83B18F7B83B908951F
:1000C00083B18F7D83B983B1806283B983B18F7D22
:1000D00083B98FEF98E10197F1F700C00000089510
:1000E0001F93CF93DF93182FC2E6D0E088818F70E3
:1000F000912F907F892B8883E3DF288130E1139F44
:10010000C0011124922F9F70892B8883D9DFDF9142
:10011000CF911F910895CF93C82F83B18F7783B963
:10012000CBDF8C2FDDDFCF910895CF93C82F83B124
:10013000806883B9C1DF8C2FD3DFCF9108956F70B2
:10014000817090E4899F600D1124862F8058E3CF41
:1001500008950F931F93CF938C01C0E002C0E5DF99
:10016000CF5FF801EC0FF11D80818111F8CFCF91A5
:100170001F910F9108958FEF8093610082B1806885
:1001800082B982B1806482B982B1806282B92FEF74
:1001900089EF90E0215080409040E1F700C00000DE
:1001A00083E0B9DF8FE19EE40197F1F700C0000022
:1001B00083E0B1DF8FE19EE40197F1F700C000001A
:1001C00083E0A9DF82E0A7DF88E2A5DF88E0A3DF84
:1001D00081E0A1DF8CE09FDF86E09DCF0895CBDF3B
:1001E00060E080E0ACDF80E091E0B3DF60E081E0E0
:0E01F000A6DF85E091E0ADDFFFCFF894FFCFF2
:1001FE007465737400344269742041546D6567618F
:06020E003132384100000E
:00000001FF
