S0110000696E746572727570742E7372656326
S113000045C000006CC0000049C0000047C00000AB
S113001045C0000043C0000041C000003FC00000D4
S11300203DC000003BC0000039C0000037C00000E4
S113003035C0000033C0000031C000002FC00000F4
S11300402DC000002BC0000029C0000027C0000004
S113005025C0000023C0000021C000001FC0000014
S11300601DC000001BC0000019C0000017C0000024
S113007015C0000013C0000011C000000FC0000034
S11300800DC000000BC0000009C0000011241FBEF9
S1130090CFEFD0E1DEBFCDBF66D06FC0B1CF8FEF61
S11300A084BB089585BB2FEF83ED90E321508040FE
S11300B09040E1F700C000000895FC018081282FE2
S11300C030E0220F331F822B8083ECCF0895FC0194
S11300D09081892F869589238083E4CF08951F9288
S11300E00F920FB60F9211240BB60F921F932F93FA
S11300F03F934F935F936F937F938F939F93AF93AC
S1130100BF93EF93FF93CF93DF931F92CDB7DEB7E7
S1130110C6DF81E08983C6DF10E004C0CE0101960A
S1130120CCDF1F5F1730D0F310E004C0CE0101967E
S1130130CEDF1F5F1730D0F30F90DF91CF91FF9187
S1130140EF91BF91AF919F918F917F916F915F914B
S11301504F913F912F911F910F900BBE0F900FBEA7
S11301600F901F9018958FEF84BB789481E0809353
S11101706A0089BF11BA15BAFECFF894FFCF0A
S9030000FC
